:1000000012C06FC098C01FC01EC01DC01CC01BC046
:100010001AC019C018C017C016C015C014C013C02C
:1000200012C011C010C011241FBECFE5D4E0DEBF46
:10003000CDBF20E0A0E6B0E001C01D92A436B2071B
:10004000E1F730D0A2C0DCCF8FEF87BB11BA82BB03
:100050000895F89485B7846085BF8BB7806C8BBF9B
:100060007894089581E088BB8FE493EC0197F1F7D1
:1000700000C0000018BA8FE493EC0197F1F700C0BC
:100080000000089582E088BB8FE493EC0197F1F7BC
:1000900000C0000018BA8FE493EC0197F1F700C09C
:1000A00000000895D1DFD5DF809162009091630058
:1000B000892B31F48091600090916100892B69F463
:1000C0008091620090916300892B71F380916000B0
:1000D00090916100892B41F702C0D4DFF1CFC2DFDC
:1000E000E3CF1F920F920FB60F9211242F933F93DD
:1000F0008F939F938FE493EC0197F1F700C000007A
:10010000209162003091630081E090E0232B11F098
:1001100080E090E090936300809362001092610011
:10012000109260009F918F913F912F910F900FBE81
:100130000F901F9018951F920F920FB60F921124D7
:100140002F933F938F939F938FE493EC0197F1F755
:1001500000C00000209160003091610081E090E0DB
:10016000232B11F080E090E0909361008093600079
:1001700010926300109262009F918F913F912F9196
:0E0180000F900FBE0F901F901895F894FFCFB0
:00000001FF
