S00E0000504B5F335F322E7372656358
S113000012C07DC094C01FC01EC01DC01CC01BC038
S11300101AC019C018C017C016C015C014C013C028
S113002012C011C010C011241FBECFE5D4E0DEBF42
S1130030CDBF20E0A0E6B0E001C01D92A436B20717
S1130040E1F730D08CC0DCCF8FEF87BB11BA82BB15
S11300500895F89485B7846085BF8BB7806C8BBF97
S11300607894089581E088BB8FE493EC0197F1F7CD
S113007000C0000018BA8FE493EC0197F1F700C0B8
S11300800000089582E088BB8FE493EC0197F1F7B8
S113009000C0000018BA8FE493EC0197F1F700C098
S11300A000000895D1DFD5DF809162009091630054
S11300B0892BA9F08091600090916100892B69F0EF
S11300C00EC08091600090916100892B79F410C07A
S11300D08091600090916100E7CFC4DFE5CF80910B
S11300E0620090916300892B61F302C0CBDFDCCF07
S11300F08091620090916300892B51F3D5CF1F92B8
S11301000F920FB60F9211248F939F9381E090E08A
S113011090936300809362001092610010926000DB
S11301209F918F910F900FBE0F901F9018951F9263
S11301300F920FB60F9211248F939F931092630026
S11301401092620081E090E09093610080936000DF
S11301509F918F910F900FBE0F901F901895F89458
S1050160FFCFCB
S9030000FC
